:020000040800F2
:10000000E8050020010100089F210008C71E000824
:100010009D210008A5030008F1270008000000004A
:1000200000000000000000000000000001220008A5
:10003000DF03000800000000FD2100080322000883
:100040001B0100081B0100081B0100081B01000820
:100050001B010008FF2100081B0100081B0100080C
:100060001B0100081B0100081B0100081B01000800
:100070001B0100081B0100081B010008A903000860
:100080001B0100081B0100086D0100081B0100088E
:100090001B0100081B0100081B0100081B010008D0
:1000A0001B0100081B0100081B0100081B010008C0
:1000B000B1220008BD2200081B0100081B01000836
:1000C0001B0100081B0100081B0100081B010008A0
:1000D0001B010008E52700081B0100081B010008A0
:1000E0001B0100081B0100081B010008DFF80CD0F1
:1000F00000F02AF800480047D5290008E80500204C
:100100000648804706480047FEE7FEE7FEE7FEE7B1
:10011000FEE7FEE7FEE7FEE7FEE7FEE769220008EE
:10012000ED000008D2B201E000F8012B491EFBD21D
:1001300070470022F6E710B513460A4604461946F2
:10014000FFF7F0FF204610BD064C074D06E0E068C3
:1001500040F0010394E8070098471034AC42F6D30E
:10016000FFF7C8FFCC2B0008EC2B000810B50448A3
:1001700000F0BAF9BDE81040024800F0B5B900003F
:1001800084000020B400002070B504460068816837
:10019000C943C9071CD1816821F00101816000F0C9
:1001A0003DFE05460FE000BF00F038FE401B022870
:1001B00009D9A06A40F01000A062E06A40F0010096
:1001C000E062012070BD20688068C043C007EBD0AA
:1001D000002070BDF8B500260446009600688168CE
:1001E000C943C90728D0816841F0010181601348E3
:1001F00013490068B0FBF1F000E0401E00900028B9
:10020000FBD100F00BFE054611E000BF00F006FE3A
:10021000401B02280BD9A06A40F01000A062E06ADF
:1002200040F00100E06284F824600120F8BD2068FD
:100230008068C043C007E9D10020F8BD74000020E9
:1002400040420F00564910B5486D0278522A7DD0C1
:10025000502A1DD142783D2A78D1C2788379303A2C
:1002600002EB4204C4EBC21203EBC2030279642422
:100270006243447904EB840402EB44021A44A2F57D
:10028000A052D03ACA6083782D2B01D15242CA6065
:100290000278492A1DD142783D2A57D1C278837904
:1002A000303A02EB4204C4EBC21203EBC203027900
:1002B00064246243447904EB840402EB44021A444C
:1002C000A2F5A052D03A0A6183782D2B01D1524277
:1002D0000A610278442A1DD142783D2A5FD1C27852
:1002E0008379303A02EB4204C4EBC21203EBC2033F
:1002F000027964246243447904EB840402EB4402EF
:100300001A44A2F5A052D03A4A6183782D2B01D12C
:1003100052424A610278532A1FD142783D2A3ED187
:10032000C2788379303A02EB4204C4EBC21203EB89
:10033000C203027964246243447904EB840402EB2F
:1003400044021A44A2F5A052D03A00E027E08A61A4
:1003500083782D2B01D152428A610278312A0DD146
:100360004278342A1BD182783D2A18D1CA68CA61E2
:100370000A690A624A694A628A698A620278322A8A
:100380000DD14278332A0AD180783D2807D1C86838
:10039000C86208690863486948638869886310BD52
:1003A00000000020FEE70000014800F031BB000023
:1003B000A401002030B590F840500124AC40C56B3A
:1003C0006C60046863604368102B036803D0996015
:1003D0000068C26030BD9A600068C16030BD70477F
:1003E00070477047F8B50024009490F82420254603
:1003F000012A12D0012280F824204A681F23072AEC
:100400000DD20668776B521E02EB820293409F4327
:100410000B6893401F43776319E00220F8BD06681C
:100420000D2A0AD2376BD21F02EB820293409F4300
:100430000B6893401F43376309E0F76A0D3A02EBFC
:10044000820293409F430B6893401F43F7620A6800
:10045000072306680A2A0AD3F7680A3A02EB42021F
:1004600093409F438B6893401F43F76008E03769D0
:1004700002EB420293409F438B6893401F433761D6
:100480000A68102A01D0112A20D1124B02689A4220
:1004900017D193681B0219D4936843F40003936047
:1004A0000968102912D10C490C4A0968B1FBF2F114
:1004B00001EB8101490000E0491E00910029FBD1B8
:1004C00004E0816A41F020018162012480F8245017
:1004D0002046F8BD002401407400002040420F0077
:1004E00070470068C06C704710B5044600684168EA
:1004F000890626D50168890723D5A16AC90603D4D0
:10050000A16A41F40071A1628168C1F342410729E7
:1005100010D1217B71B9416821F020014160A06AAE
:1005200020F48070A062A06AC00403D4A06A40F0E6
:100530000100A0622046FFF7D3FF21686FF0120090
:1005400008602068416809062ED5016849072BD547
:10055000A16AC90603D4A16A41F40051A16281686D
:10056000C1F30231072909D04168490515D48168D2
:10057000C1F34241072910D1217B71B9416821F0B3
:1005800080014160A06A20F48050A062A06AC0058A
:1005900003D4A06A40F00100A0622046FFF721FFCB
:1005A00021686FF00C0008602068416849060DD58D
:1005B0000068C0070AD0A06A40F48030A0622046DC
:1005C00000F094F821686FF00100086010BD000091
:1005D0002DE9F0414FF0000704003D467ED0A06AAF
:1005E000002628B9E66284F82460204600F080F8EE
:1005F0002046FFF7C9FDA16AC90600D420B1A06A50
:1006000040F01000A06269E0A16A21F4885141F035
:100610000201A1626268E169237B0A4347EA430160
:100620000A43A1684FF48077B94209D0012907D065
:100630005FF0000194F814C0BCF1010F02D00AE091
:100640003946F7E7F3B1A36A43F02003A362E36AF4
:1006500043F00103E3622368D3F804C02CF4694C2F
:100660004CEA010CC3F804C021688B68DFF870C045
:1006700003EA0C0313438B60A168B9420BD0012934
:1006800009D00CE0DFF85CC0A3690CEB43330B43EB
:1006900043F40061DFE7218A0D05A5F58015216887
:1006A000CB6A23F470032B43CB62216889680E4B1D
:1006B0001940914208D1E662A16A21F0020141F09D
:1006C0000101A162BDE8F081A06A20F0020040F0C3
:1006D0001000A062E06A40F00100E0620120F1E752
:1006E000FDF7E1FF00E0FFFFFE0E1FFF7047000077
:1006F00010B586B0002100910191029103911E4C2A
:1007000003681E4903221E48A34211D18B6943F49A
:1007100000738B618B6903F4007304938B6943F05E
:1007200004038B61896901F004010491012113E044
:10073000144CA3421DD18B6943F480638B618B6998
:1007400003F4806304938B6943F004038B6189692C
:1007500001F0040104910221CDE90012694600F084
:1007600067FA00220121122000F0CCFB122000F0D9
:10077000BBFB06B010BD0000002401400010024089
:1007800000080140002801402DE9F84300260D46ED
:100790000446009600F042FB804620688168C90547
:1007A00008D5A06A40F02000A06284F824600120EF
:1007B000BDE8F8834168C90503D4C06A10F4700F1E
:1007C00026D0022000F0D0FB38490968B1FBF0F7D1
:1007D0002068036936490B424FEA61014FEAA112D2
:1007E0001BD1C3684FEA611C13EA0C0F15D10369D2
:1007F0000B4221D1C06810421ED114201FE0681C9A
:1008000006D045B300F00AFBA0EB0800A84222D8AE
:10081000206800688007F2D52AE003690B4202D104
:10082000C168114206D0026922490A4206D1C06855
:10083000084203D1542002E0292000E0FC20474375
:10084000009813E0681C0ED02DB100F0E7FAA0EB81
:100850000800A84207D9A06A40F00400A06284F80A
:1008600024600320A4E70098401C0090B842E9D31C
:1008700021686FF012000860A06A40F40070A06266
:1008800020688068C0F3424007280CD1207B50B913
:10089000A06A20F48070A062A06AC00403D4A06A99
:1008A00040F00100A062002082E7000074000020F8
:1008B000244992244992240070B5044690F82400FB
:1008C00001280DD0012084F824002046FFF782FC87
:1008D00002004FF0000005D084F82400104670BDDF
:1008E000022070BDA16A40F20123994341F4807156
:1008F000A1621F4D23681F49AB4218D10E6816F440
:10090000702F14D0A66A46F48016A6620E6876058B
:1009100005D5A66A26F4005646F48056A662A66A55
:10092000F6040AD5E66A26F00606E66206E0A66A3E
:1009300026F48016A6625E68E9E7E06284F8240087
:100940006FF00200186020688368C3F34243072BEE
:1009500005D1A84208D1096811F4702F04D081682C
:1009600041F480118160B9E7816841F4A001F9E7A1
:10097000002801400424014010B590F82110002403
:10098000022903D00421816301243DE001680A6843
:1009900022F00E020A6001680A6822F001020A6071
:1009A0001A4A0168914201D1012121E0174A14320B
:1009B000914201D110211BE0144A2832914201D109
:1009C000891515E0114A3C32914201D189140FE09A
:1009D0000E4A5032914202D14FF4803108E00B4A66
:1009E0006432914202D14FF4801101E04FF08071E6
:1009F000064A083A5160012180F82110002180F850
:100A00002010416B01B18847204610BD080002400C
:100A10002DE9F05FC16B0C6801680B68D0F840C02D
:100A2000042202FA0CF2494DDFF824A1494E4A4F44
:100A3000DFF828B1DFF828E122422CD05A072AD566
:100A40000A68920603D40A6822F004020A60016868
:100A5000A94201D1042219E0514501D1402215E0FB
:100A6000B14202D14FF4806210E0B94202D14FF49A
:100A700080420BE0594502D14FF4802206E07145D7
:100A800002D14FF4800201E04FF080622F49083913
:100A90004A60C16A3BE04FF0020808FA0CF818EA15
:100AA000040F4FF000094FF0010235D05FEA837860
:100AB00032D50B689B0605D40B6823F00A030B6044
:100AC00080F821200168A94201D1022219E0514594
:100AD00001D1202215E0B14202D14FF4007210E0A2
:100AE000B94202D14FF400520BE0594502D14FF404
:100AF000003206E0714502D14FF4001201E04FF0E0
:100B00000072124908394A6080F82090816A0029F1
:100B10001AD0BDE8F05F0847082505FA0CF5254214
:100B200012D01B0710D50B6823F00E030B6090F852
:100B30004010C36B02FA01F15960826380F82120F2
:100B400080F82090016BE2E7BDE8F09F08000240CA
:100B50001C000240300002404400024058000240A5
:100B60006C00024030B528B308C813491422194458
:100B7000B1FBF2F18900C163104981630221417721
:100B80001A6843F6F0718A43D0E900142143D0E992
:100B900002452C432143046921434469214384696C
:100BA00021431143196000214163012242770177FB
:100BB000084630BD012030BDF8FFFDBF00000240F7
:100BC00070B5044690F82000002501280CD00120C3
:100BD00084F8200094F821600020012E06D084F8CB
:100BE00020000225284670BD022070BD022684F830
:100BF0002160A0632068066826F001060660204692
:100C0000FFF7D8FBE06A00282068016802D041F0B5
:100C10000E0106E021F0040101602068016841F046
:100C20000A0101602068016841F001010160D9E713
:100C30002DE9F84FDFF8B891002409F1040A0AF110
:100C4000040B23460F270BF1040EC9E00125A54034
:100C50002A40AA427DD1674ED1F804C0ACEB060809
:100C6000B44532D014DCBCF1030F3AD009DCBCF13E
:100C7000000F2AD0BCF1010F1CD0BCF1020F31D102
:100C80001DE0BCF1110F17D0BCF1120F2AD119E0F1
:100C9000B8F5881F19D006DCB8F5803F15D0B8F537
:100CA000801F1FD111E0B8F5001F0ED0B8F5041F4A
:100CB00018D10AE0CB6815E0CB681B1D12E0CB68A9
:100CC00008330FE0CB680C330CE08B682BB1012BA1
:100CD0004FF0080303D0456104E0042302E00561FE
:100CE00000E00023FF2A01D8064601E000F10406D7
:100CF0004FEA840501D9A5F12005D6F8008007FA4E
:100D000005FC28EA0C0803FA05F548EA0508C6F8C8
:100D100000804D68ED0062D5374DAE6946F00106A2
:100D2000AE61AD6924F0030605F001050095334D71
:100D300006EB050CDCF80850A607360F07FA06F894
:100D400025EA0805DFF8B880404503D14FF00008D8
:100D500017E044E0DFF8AC80404502D14FF00108D5
:100D60000FE0DFF8A480404502D14FF0020808E010
:100D7000DFF89880404502D14FF0030801E04FF0C2
:100D8000040808FA06F848EA0508CCF808804D6817
:100D9000D9F80060ED034D4601D5164300E09643B7
:100DA0002E604D68DAF80060AD03554601D5164354
:100DB00000E096432E604D68DBF80060ED025D4672
:100DC00001D5164300E096432E604D68DEF80060C2
:100DD000AD02754601D5164300E096432E60641CB3
:100DE0000D682A46E5407FF431AFBDE8F88F00007A
:100DF00000040140000011100010024000000140FA
:100E000000080140000C01400010014000140140A6
:100E10000AB1016170470904FBE7000001488068DE
:100E20007047000068000020024881680278114481
:100E30008160704768000020074810B5016841F0E4
:100E400010010160032000F07DF8002000F006F89A
:100E500000F024F8002010BD0020024070B50D4DB8
:100E600004464FF47A712878B1FBF0F00A4909681A
:100E7000B1FBF0F000F0E2FB48B9102C07D20022E1
:100E80002146501E00F03EF800206C6070BD01202D
:100E900070BD00006800002074000020104808B5F4
:100EA000816941F001018161816901F001010091D5
:100EB000C16941F08051C161C069002200F08050D9
:100EC00000901146052000F01DF8052000F00CF8F8
:100ED0000448416821F0E06141F08061416008BD53
:100EE0000010024000000140002809DB00F01F0252
:100EF000012191404009800000F1E020C0F800117C
:100F000070470000F0B40E4B1B680C46C3F302237D
:100F1000C3F10705042D00D90425191D072901D2A5
:100F2000002300E0DB1E012606FA05F1491E2140E0
:100F300099409E40761E16403143F0BC01F059BCEA
:100F40000CED00E0064900F0070208684FF6FF03C9
:100F5000184040EA0220034A10430860704700002E
:100F60000CED00E00000FA0510B529A401461DCCE7
:100F700086B08DE81D002AA02A4C0068049000204D
:100F8000012923D002293AD010291DD16168226895
:100F9000D20119D5C1F38342C9031DF8020009D556
:100FA000616804AAC1F34041515C1F4AB2FBF1F1F0
:100FB000484301E01D4948436168490204D44000A8
:100FC0005FF00301B0FBF1F006B010BD226AC2F37E
:100FD0000121012903D1920701D5C803F4E70229B1
:100FE00005D1626A920702D549F64040ECE7032931
:100FF000EAD121688903E7D54FF22440E4E700F005
:101000003BF96168C1F38131491C4900DAE700000E
:1010100002030405060708090A0B0C0D0E0F101039
:10102000010200000010024000127A0000093D0099
:101030002DE9F84305460078354CC00754D0E069E7
:101040000026C00008D4E06940F08050E061E0690B
:10105000012600F0805000902E480168C90512D486
:101060000168804641F480710160FFF7D7FE0746B2
:1010700005E000BFFFF7D2FEC01B642823D8D8F8D4
:101080000000C005F6D5206A10F4407021D0A98870
:1010900001F4407181421CD0206A1F49012220F4D2
:1010A00040700A6000220A602062C00711D0FFF77A
:1010B000B5FE074641F2883808E000BFFFF7AEFEF4
:1010C000C11B414502D90320BDE8F883206A80078F
:1010D000F4D5206A696820F44070084320621EB18C
:1010E000E06920F08050E0612878800705D56068CD
:1010F000A96820F44040084360602878C00605D500
:101100006068E96820F48000084360600020DBE745
:10111000001002400070004040044242704700004E
:101120002DE9F0470F46050061D0434E306800F0CE
:101130000700B84209D2306820F007003843306019
:10114000306800F00700B84251D128683B4C810755
:1011500012D5400703D5606840F4E06060602878ED
:10116000000703D5606840F4605060606068A9685B
:1011700020F0F000084360602878C00728D0686835
:10118000012810D02168022810D0890700292EDA02
:10119000616821F0030101436160FFF73FFE804673
:1011A00041F288390DE021688903EFE78901EDE715
:1011B000FFF734FEA0EB0801494502D90320BDE842
:1011C000F0876068696800F00C00B0EB810FEFD128
:1011D000306800F00700B8420BD9306820F00700F3
:1011E00038433060306800F00700B84201D0012079
:1011F000E5E72878400705D56068E96820F4E060F5
:10120000084360602878000706D56068296920F4E3
:10121000605040EAC100606000F03EF86168084A32
:10122000C1F30311515CC8400649086006480068D4
:10123000FFF714FE0020C2E7002002400010024029
:10124000B42B0008740000206C000020014901202C
:10125000C864704700004242044805490068496874
:10126000044AC1F30221515CC84070477400002059
:1012700000100240C42B0008044805490068496872
:10128000044AC1F3C221515CC84070477400002079
:1012900000100240C42B000812A185B00FC98DE8D0
:1012A0000F0014A0144A006804905168134801F01C
:1012B0000C03042B10D0082B0ED1C1F38343C903B8
:1012C0001DF803000AD5516804AAC1F34041515CDE
:1012D0000A4A5043B0FBF1F005B070470849484353
:1012E000FAE7000002030405060708090A0B0C0DC3
:1012F0000E0F1010010200000010024000127A00D0
:1013000000093D0010B5044CA068000603D5FFF7A6
:1013100005FF8020A07210BD001002402DE9F84F9B
:10132000040070D02078C04DC00749D06868C0F371
:101330008100012807D06868C0F38100022809D124
:101340006868C00306D52868800339D5606800281E
:10135000E7D035E06068B0F5803F0BD010B1B0F554
:10136000A02F11D0286820F480302860286820F44D
:10137000802002E0286840F480302860606890B1E6
:10138000FFF74CFD06460AE0286840F480202860FC
:10139000F0E700BFFFF742FD801B642873D8286880
:1013A0008003F7D50CE0FFF739FD064605E000BFE6
:1013B000FFF734FD801B6428F0D828688003F7D439
:1013C00020789A4E80074FF001094FF0000839D578
:1013D000686810F00C0F07D06868C0F3810002281D
:1013E00009D16868C00306D42868800714D520692D
:1013F000012808D110E02069B0B1C6F80090FFF7CD
:101400000DFD074605E00AE1FFF708FDC01B0228B5
:10141000C4D828688007F7D52868616920F0F800EB
:1014200040EAC10028600DE0C6F80080FFF7F6FC36
:10143000074604E0FFF7F2FCC01B022823D8286807
:101440008007F7D4207800072CD57948A169D9B155
:10145000C0F80090FFF7E2FC074604E0FFF7DEFC6F
:10146000C01B02280FD8686A8007F7D571484FF46F
:10147000FA510068B0FBF1F0009000BF0098411EE7
:101480000091FAD20EE080E0C0F80080FFF7C6FCC1
:10149000074604E0FFF7C2FCC01B022875D8686A43
:1014A0008007F7D42078400760D5E8690027C0009E
:1014B00008D4E86940F08050E861E869012700F04D
:1014C000805000905C480168C90513D401688346C8
:1014D00041F480710160FFF7A1FC824606E000BF85
:1014E000FFF79CFCA0EB0A0064284ED8DBF8000054
:1014F000C005F5D5E06801280AD008B1052813D049
:10150000286A20F001002862286A20F0040002E026
:10151000286A40F001002862E06841F2883B98B1F7
:10152000FFF77CFC82460BE0286A40F0040028624A
:10153000EEE700BFFFF772FCA0EB0A0159455AD84D
:10154000286A8007F6D50CE0FFF768FC824605E0C4
:10155000FFF764FCA0EB0A0159454CD8286A8007C4
:10156000F6D41FB1E86920F08050E861E06988B3E3
:101570006968C1F38101022944D00228C6F860805D
:1015800004D0FFF74BFC044638E034E0FFF746FC9C
:10159000074604E0FFF742FCC01B02282BD828684E
:1015A0008001F7D4206AB0F5803F05D16868A16852
:1015B00020F4003008436860D4E9080108436968F2
:1015C00021F4741108436860C6F86090FFF726FCA8
:1015D000044606E025E000BFFFF720FC001B0228C0
:1015E00009D828688001F7D51BE000BFFFF716FC7B
:1015F000001B022802D90320BDE8F88F286880016B
:10160000F4D40EE00128F7D06868226A00F4803133
:10161000914204D1616A00F47010884201D0012027
:10162000EAE70020E8E70000001002400000424224
:1016300080044242740000200070004010B5401E3B
:10164000B0F1807F01D3012010BD4FF0E024606134
:101650000F21601701F0CDF80020A0610720206164
:10166000002010BD7047704770B590F83C20012AEB
:1016700019D0012400F83C4F0222427050F83C3C43
:101680005A689D6822F070060A684968324325F05E
:10169000800529435A6050F83C2C91604470002129
:1016A0000170084670BD022070BD10B5040003D063
:1016B00094F83D0010B107E0012010BD002084F82F
:1016C0003C00204600F00CF8022084F83D00211D6B
:1016D000206800F0F9FD012084F83D00002010BDD5
:1016E00008B501681448B1F1804F14D0134A9142F3
:1016F00020D1C16941F00201C161C069002200F03E
:101700000200009002211D20FFF7FCFB1D20BDE818
:101710000840FFF7E9BBC16941F00101C161C0693F
:10172000002200F00100009002211C20FFF7EAFBDC
:101730001C20ECE708BD000000100240000400403F
:1017400070B5044690F83C00012817D0012584F8B4
:101750003C50022084F83D002068826822F0770225
:1017600022F47F4282600868502830D00DDC2028A7
:101770004DD005DC98B310283BD148E0022070BD65
:10178000302844D0402834D139E0602828D070284F
:1017900006D0B0F5805F2CD0B0F5005F29D10AE00B
:1017A000CB68D1E90121206800F0D1FD2068816873
:1017B00041F0770109E0CB68D1E90121206800F010
:1017C000C6FD2068816841F48041816011E0CA68EB
:1017D0004968206800F070FE5021206807E016E09C
:1017E000CA684968206800F078FE6021206800F02F
:1017F000B8FD84F83D50002084F83C0070BDCA68F4
:101800004968206800F058FE40212068EFE7226810
:1018100001461046EBE7704770B504460068016961
:101820004FF00005C943890715D4C168C94389072A
:1018300011D4E91E016101202077206880698007AA
:10184000204602D0FFF7E7FF04E000F0CBF8204687
:1018500000F04DF9257720680169C943490717D47D
:10186000C168C943490713D46FF004010161022024
:1018700020772068806910F4407F204602D0FFF76F
:10188000CAFF04E000F0AEF8204600F030F92577FA
:1018900020680169C943090716D4C168C94309070B
:1018A00012D46FF008010161042020772068C0691C
:1018B0008007204602D0FFF7AEFF04E000F092F868
:1018C000204600F014F9257720680169C943C9064C
:1018D00017D4C168C943C90613D46FF01001016160
:1018E000082020772068C06910F4407F204602D08D
:1018F000FFF791FF04E000F075F8204600F0F7F8DC
:10190000257720680169C943C90708D1C168C9435F
:10191000C90704D1891E0161204600F005F920683D
:101920000169C943090609D4C168C943090605D438
:101930006FF0800101612046FFF794FE2068016985
:10194000C943490609D4C168C943490605D46FF0A3
:1019500040010161204600F0E8F820680169C943B0
:1019600089060BD4C168C943890607D46FF02001EA
:1019700001612046BDE87040FFF775BE70BD0000F4
:1019800010B586B000210091019102910391036886
:10199000114902221148B3F1804F13D0104CA342D9
:1019A0000ED18B6943F004038B61896901F0040156
:1019B0000491C021CDE9001269460392FFF738F97E
:1019C00006B010BD8B6943F004038B61896901F097
:1019D000040104910C21EDE70010024000080140D1
:1019E00000040040704770B5044690F83C000D4676
:1019F00001280DD0012684F83C60022084F83D00C7
:101A000042B1042A18D0082A2AD00C2A4DD139E034
:101A1000022070BD206800F0ADFC2068816941F0B3
:101A2000080181612068816921F0040181612068D9
:101A300081692A69114311E0206800F0C3FC206825
:101A4000816941F4006181612068816921F48061CC
:101A50008161206881692A6941EA0221816124E06B
:101A6000206800F0DBFC2068C16941F00801C16119
:101A70002068C16921F00401C1612068C1692A6937
:101A8000114311E0206800F0F5FC2068C16941F4C1
:101A90000061C1612068C16921F48061C161206871
:101AA000C1692A6941EA0221C16184F83D600020D0
:101AB00084F83C0070BD10B5040003D094F83D00DC
:101AC00010B107E0012010BD002084F83C00204642
:101AD00000F00CF8022084F83D00211D206800F081
:101AE000F3FB012084F83D00002010BD70477047D3
:101AF00010B504460068012200F01CFC094920686A
:101B0000884203D1416C41F40041416420688168FE
:101B100001F00701062903D0016841F001010160CD
:101B2000002010BD002C0140704770477047000036
:101B300070B5026804461068D168536910F00F0F41
:101B400050D003F0010501F4907635435DD0C20713
:101B500005D0CA0503D5E26B42F00102E2634207F9
:101B600005D5DA0703D0E26B42F00202E263820796
:101B700005D5DA0703D0E26B42F00402E263020704
:101B800005D5DA0703D0E26B42F00802E263E26BAC
:101B9000002A33D0800604D5880602D5204600F0FE
:101BA00015FD20684069E16BC0F38010090700D47F
:101BB00028B3204600F0F3FC2068416949061AD595
:101BC000416921F040014161606BA0B11B49416353
:101BD000606BFEF7D1FE002810D0606B416BBDE852
:101BE00070400847830610D58B060ED52046BDE809
:101BF000704000F0EBBC2046FFF798FF70BD204618
:101C0000FFF794FF0020E06370BD030606D50B06C6
:101C100004D52046BDE8704000F080BD4006F3D5F5
:101C20004806F1D5D168204621F04001D16020213D
:101C300084F8391000F046F970BD0000FF24000858
:101C400070B5040004D094F83900002510B106E006
:101C5000012070BD84F83850204600F023F824207D
:101C600084F839002068C16821F40051C160204621
:101C700000F0F8FC2068016921F4904101612068BE
:101C8000416921F02A0141612068C16841F4005195
:101C9000C160E563202084F8390084F83A00002010
:101CA00070BD000070B586B0002506460095019510
:101CB0000295039500682349884240D122498869EA
:101CC00040F480408861886900F48040049088690D
:101CD00040F00400886188691C4C00F00400049006
:101CE0004815009002200190032003906946204689
:101CF000FEF79EFF2015CDE90005694620460295B6
:101D0000FEF796FF134C1248C4E900058020C4E991
:101D1000025020202561C4E90550C001E061204641
:101D2000FEF720FF08B1FEF75BFB7463002211464B
:101D300025206662FFF7E6F82520FFF7D5F806B004
:101D400070BD000000380140001002400008014052
:101D500058000240A4010020F8B5044690F83A006B
:101D600020283CD1C1B3BAB394F83800012836D04A
:101D7000012084F83800A162A2850025E5632220B5
:101D800084F83A00636B17489862636B1648D86210
:101D9000636B16481863606B134645630846666BB1
:101DA000216802463046091DFEF70AFF20680168D7
:101DB0004168009184F83850C16841F48071C16075
:101DC0002068416941F0010141612068416941F0A9
:101DD000400141610020F8BDFFE70120FBE7022040
:101DE000F9E7000059250008952500080F2500088F
:101DF00000680349884202D10249012048707047B7
:101E0000003801400000002070472DE9F8430446E7
:101E100090F839001F4616460D46202850D1A5B12E
:101E20009EB194F8380001284AD0012084F8380087
:101E30004FF00008C4F83C80212084F83900FEF7F8
:101E4000EDFFA6848146E68426E00120BDE8F88304
:101E5000E08C401EE084A0684B46B0F5805F4FF0F8
:101E600000024FF080012046009703D000F087FC6D
:101E7000E8B90DE000F083FCC8B928882168C0F3F8
:101E800008004860206908B16D1C05E0AD1C03E046
:101E9000216815F8010B4860E08C0028D8D14B462A
:101EA000002240212046009700F069FC08B1032081
:101EB000CCE7202084F8390084F838800020C5E77A
:101EC0000220C3E77047FEE73EB5002411480094A6
:101ED000019402940E498460016004730475012525
:101EE00005614FF460214460C161FEF771FB08B1E8
:101EF000FEF776FA07200094CDE9015069460548BF
:101F0000FEF770FA002801D0FEF76AFA3EBD000025
:101F100000240140840000203EB5002111480091BA
:101F200001910F4A029102608160017301750124E1
:101F30004FF460220461C2614160FEF749FB08B1C1
:101F4000FEF74EFA07200094CDE9014069460548A6
:101F5000FEF748FA002801D0FEF742FA3EBD000025
:101F600000280140B4000020094808B5416941F04B
:101F7000010141614069002200F00100009011461A
:101F80000F20FEF7BFFFBDE808400F20FEF7ACBFF3
:101F90000010024070B586B00024184800940194E7
:101FA00002940394816941F010018161816901F01B
:101FB00010010491816941F020018161816901F082
:101FC00020010491816941F00401816180690C4E16
:101FD00000F004004FF400550490002229463046DA
:101FE000FEF716FF01200095CDE9010402200390C1
:101FF00069463046FEF71CFE06B070BD0010024078
:102000000010014010B58EB0002407940894099484
:102010000A940B941C2168460C94FEF78AF8244815
:102020004FF0804101600321C0E901146321C0E940
:10203000031480218161FFF738FB08B1FEF7D0F966
:102040004FF48050079007A91948FFF779FB08B1B2
:10205000FEF7C6F91648FFF72EFD08B1FEF7C0F9E6
:102060002020CDE90B040BA91148FFF7FDFA08B1B8
:10207000FEF7B6F9602000900120CDE901040822A6
:1020800069460B480494FFF7AEFC08B1FEF7A8F9C7
:10209000022001900C2269460548FFF7A4FC08B114
:1020A000FEF79EF90248FFF76BFC0EB010BD000072
:1020B000E400002030B58DB0002407940894099402
:1020C0000A940B941C2168460C94FEF732F82448BD
:1020D00022490325C0E900156321C0E9024180219E
:1020E00004618161FFF7E1FA08B1FEF779F94FF475
:1020F0008050079007A91A48FFF722FB08B1FEF7A6
:102100006FF91748FFF7D7FC08B1FEF769F92020EF
:10211000CDE90B040BA91248FFF7A6FA08B1FEF7A8
:102120005FF960200090CDE90154002269460C4817
:102130000494FFF758FC08B1FEF752F90420024658
:10214000019069460648FFF74EFC08B1FEF748F9D2
:102150000348FFF715FC0DB030BD0000000400403F
:10216000240100200C4810B50A4901604FF41651B3
:102170004160002181600C22C160C0E904128161CC
:10218000C161FFF75DFD002803D0BDE81040FEF7F8
:1021900027B910BD0038014064010020FEE7FFF7B9
:1021A000B1B80000094810B5C269C16DC46B036ABB
:1021B0004A4303FB0422836D406AC91A00FB0120D5
:1021C00042F2107190FBF1F010BD00000000002001
:1021D000094810B5C26A416E046C036B4A4303FBA5
:1021E0000422036E406BC91A00FB012042F21071F9
:1021F00090FBF1F010BD0000000000207047704718
:102200007047FEF711BE30B593B028216846FDF740
:1022100090FF14210AA8FDF78CFF002401200F94E1
:10222000109411940104420412948DE80700049064
:102230004FF4A010CDE90810022507956846FFF776
:102240006DF80F200A90CDE90B540D9401210AA8D6
:102250000E94FEF765FF0FA80F951194FEF7E8FEA8
:10226000FEF7F4FF13B030BD0D48016841F00101E5
:10227000016041680B4A1140416001680A4A1140FF
:102280000160016821F480210160416821F4FE01B0
:1022900041604FF41F0181600449C003086070472A
:1022A000001002400000FFF8FFFFF6FE08ED00E01E
:1022B0000148FFF7B1BA0000E40000200148FFF731
:1022C000ABBA000024010020F0B50268164B174C91
:1022D000174D4FF08047984205D0B84203D0A04236
:1022E00001D0A84203D122F070064A6832439842D6
:1022F00005D0B84203D0A04201D0A84203D122F4B5
:102300004074CA6822434C6922F080022243026072
:102310008A68C2620A688262984201D109690163CF
:1023200001214161F0BD0000002C0140000400408B
:102330000008004010B501F01F030121046A994014
:102340008C430462016A9A401143016210BD10B5CA
:10235000846842EA032224F47F440A4322438260D1
:1023600010BD826822F070020A4342F007018160CA
:102370007047000030B5026A22F001020262026A70
:102380004368846924F073050C682C4322F002052D
:102390008A682A430A4DA8420BD122F00805CA6870
:1023A00023F440732A434D6922F004021D438B69D4
:1023B0002B434360846149684163026230BD000081
:1023C000002C014030B5026A22F010020262026A5B
:1023D000436884690D6824F4E64444EA05248D6862
:1023E00022F0200242EA05120B4DA8420ED1CD6820
:1023F00022F0800242EA05124D6923F4406343EA69
:1024000085038D6922F0400243EA850343608461BD
:1024100049688163026230BD002C014030B5026A18
:1024200022F480720262036A4268C46923F4007372
:1024300024F073050C682C438D6843EA05230C4D8A
:10244000A8420ED1CD6823F4006343EA05234D6909
:1024500022F4405242EA05128D6923F4806342EA75
:1024600005124260C4614968C163036230BD000067
:10247000002C014030B5026A22F480520262046AE4
:102480004268C3690D6823F4E64343EA05238D6877
:1024900024F4005444EA0534064DA84204D14D69A1
:1024A00022F4804242EA85124260C36149680164B5
:1024B000046230BD002C014010B5036A046A24F0A8
:1024C00001040462846924F0F00444EA021423F055
:1024D0000A020A438461026210BD10B5036A23F048
:1024E000100303628369046A23F4704343EA0232EF
:1024F00024F0A00343EA01118261016210BD10B50E
:10250000406A0021C185C184FFF710FB10BD70B582
:10251000446A2068406994F83910C0F3C01000255F
:10252000212904D118B1E584204600F046F820683E
:10253000406994F83A10C0F38010222904D118B1F0
:10254000E585204600F02BF8E06B40F01000E063DA
:102550002046FFF7EBFA70BD10B50146406A0968E6
:102560000968890613D40021C1850168CA6822F46C
:102570008072CA6001684A6922F001024A610168FA
:102580004A6922F040024A61202180F83A10FFF7A0
:102590002FFC10BD10B5406AFFF736FC10BD016876
:1025A000CA6822F49072CA6001684A6922F0010286
:1025B0004A61202180F83A1070470168CA6822F009
:1025C000C002CA60202180F83910704710B590F819
:1025D0003A10222901D0022010BD8168B1F5805F38
:1025E00011D00169002901681FD0496801F07F03FB
:1025F000816A4A1C82620B70C18D491E0904090C54
:10260000C18518D02BE00269816A002A02685268ED
:1026100005D0D2B20A80816A491C8162ECE7C2F31C
:1026200008020A80816A891CF7E74A68816A4B1CA4
:1026300083620A70E0E70168CA6822F02002CA607B
:102640000168CA6822F48072CA6001684A6922F08F
:1026500001024A61202180F83A10FFF7C9FB0020EF
:1026600010BD00002DE9F041044600680169E268F0
:1026700021F44051114301612169A0680843616957
:1026800008432168CA6841F20C639A430243CA6056
:1026900020684169A26921F44071114341611E49DA
:1026A000206864253226884202D1FEF7E5FD01E06C
:1026B000FEF7D2FD00EBC00101EB001160686FF086
:1026C00018078000B1FBF0F2B2FBF5F2B1FBF0F3BA
:1026D0007A4303EB8202B1FBF0F306EB0212B2FB8A
:1026E000F5F2B3FBF5F302F0F00202EB0312B1FBDB
:1026F000F0F3B1FBF0F0B0FBF5F0784303EB8000B2
:1027000006EB0010B0FBF5F0216800F00F0010445C
:102710008860BDE8F08100000038014090F8391071
:10272000212901D0022070478168B1F5805F016ADC
:102730000BD04A1C0262026809785160C18C491EA4
:102740000904090CC1840ED017E009880268C1F39E
:102750000801516001690029016A02D0491C016227
:10276000ECE7891CFBE70168CA6822F08002CA60B6
:102770000068C16841F04001C160002070472DE948
:10278000F041984617460E460446069D1DE0681C1B
:102790001BD02DB1FEF742FBA0EB0800A84214D9D4
:1027A0002068C16821F4D071C1602068416921F0BE
:1027B00001014161202084F8390084F83A000020AA
:1027C00084F838000320BDE8F0812068006836EA0C
:1027D000000004D00020B842D9D00020F3E7012047
:1027E000F9E700000148FFF7A3B9000064010020E9
:1027F000FEE70907090E002804DB00F1E02080F85D
:102800000014704700F00F0000F1E02080F8141D64
:10281000704702E008C8121F08C1002AFAD17047A9
:102820007047002001E001C1121F002AFBD1704750
:1028300070B50E4C002525700D48FEF73DF8FF21C0
:102840000B48FDF7A1FF0A48FDF74BFE61680844FD
:1028500060602078401CC0B220700A28ECD3606809
:102860000A21B0FBF1F06560606470BD00000020DB
:102870008400002070B50E4C002525700D48FEF731
:102880001BF8FF210B48FDF77FFF0A48FDF729FEE3
:10289000A1680844A0602078401CC0B220700A28BB
:1028A000ECD3A0680A21B0FBF1F0A560A06470BD74
:1028B00000000020B400002070B5FFF773FC444C0A
:1028C0004FF6FF75A16A081AB0EB410F0ADAFFF75D
:1028D00069FCA16A081A05D4FFF764FC218D081A67
:1028E00080B20AE0FFF75EFCA16A081AB0EB410F64
:1028F00002DB05EA410000E0002000F003F9FFF7E9
:1029000051FCA16A0844B0EB410F0ADAFFF74AFC18
:10291000A16AC84205D4FFF745FC218D084480B266
:102920000AE0FFF73FFCA16A0844B0EB410F02DB6D
:1029300005EA410000E0002000F026F9E16BE06DBF
:102940000144E163A065FFF743FCA16B081AB0EBFB
:10295000410F0ADAFFF73CFCA16B081A05D4FFF718
:1029600037FC218F081A80B20AE0FFF731FCA16B17
:10297000081AB0EB410F02DB05EA410000E000203D
:1029800000F0D6F8FFF724FCA16B0844B0EB410F30
:102990000ADAFFF71DFCA16BC84205D4FFF718FC4B
:1029A000218F084480B20AE0FFF712FCA16B0844B3
:1029B000B0EB410F02DB05EA410000E0002000F02F
:1029C000CDF8216C606E01442164206670BD00006A
:1029D00000000020FEF730FAFFF715FCFFF7DAFAE7
:1029E000FFF7C2FAFFF770FAFFF796FAFFF70AFB54
:1029F000FFF760FBFFF7B6FB3148FDF75DFFFF21F6
:102A00002F48FDF7C1FE2E48FDF76BFD2D4CE0640D
:102A10002D48FDF751FFFF212B48FDF7B5FE2A4851
:102A2000FDF75FFD20650A2228492948FFF794F940
:102A3000264D4FF6FF7600BFFDF704FCFFF7F8FECA
:102A4000FFF718FFE16C606C401AE065216DA06C27
:102A5000401A6066FFF730FF0A221C491C48FFF746
:102A60007BF960780028E7D03346082219A118487E
:102A7000FFF7CBF933460A2214491548FFF7C5F989
:102A80003346022216A11248FFF7BFF928784128E1
:102A900005D16878542802D1A8782B2808D033466D
:102AA0000D2210A10A48FFF7B0F900206070C3E7BB
:102AB00006483346C01C0D220EA16065F2E70000F7
:102AC0008400002000000020B400002078000020D6
:102AD00064010020726563656976653A0000000054
:102AE0000D0A00002020202020206572726F720DD8
:102AF0000A00000020202020202020204F4B0D0A1B
:102B00000000000000B587B06021CDE90010002072
:102B100002900246049069460448FEF764FF0021D3
:102B20000248FEF7E5FF07B000BD000024010020C9
:102B300000B587B06021CDE900100020029004901C
:102B4000042269460448FEF74EFF04210248FEF7BE
:102B5000CFFF07B000BD00002401002000B587B002
:102B60006021CDE9001000200290049008226946FF
:102B70000448FEF738FF08210248FEF7B9FF07B006
:102B800000BD0000E400002000B587B06021CDE961
:102B900000100020029004900C2269460448FEF7C1
:102BA00022FF0C210248FEF7A3FF07B000BD000082
:102BB000E400002000000000000000000102030407
:102BC000060708090000000001020304EC2B0008BE
:102BD000000000207800000012280008642C000883
:102BE0007800002070050000222800080000000086
:102BF00000000000000000001E00000000000000B7
:102C0000000000003C000000840300000000000001
:102C1000401F00003200000084030000000000009C
:102C2000401F000032000000000000000000000013
:102C30000000000000000000000000000000000094
:102C40000000000000000000000000000000000084
:102C50000000000001000000100000000000000063
:042C60000024F40058
:04000005080000ED02
:00000001FF
